{
  "contractName": "EPKFarm",
  "abi": [
    {
      "inputs": [
        {
          "internalType": "address",
          "name": "_epkContract",
          "type": "address"
        },
        {
          "internalType": "address",
          "name": "_epkLPContract",
          "type": "address"
        }
      ],
      "stateMutability": "nonpayable",
      "type": "constructor"
    },
    {
      "anonymous": false,
      "inputs": [
        {
          "indexed": false,
          "internalType": "address",
          "name": "to",
          "type": "address"
        },
        {
          "indexed": false,
          "internalType": "uint256",
          "name": "amount",
          "type": "uint256"
        }
      ],
      "name": "Harvest",
      "type": "event"
    },
    {
      "anonymous": false,
      "inputs": [
        {
          "indexed": false,
          "internalType": "address",
          "name": "from",
          "type": "address"
        },
        {
          "indexed": false,
          "internalType": "uint256",
          "name": "amount",
          "type": "uint256"
        }
      ],
      "name": "IncreaseJackpot",
      "type": "event"
    },
    {
      "anonymous": false,
      "inputs": [
        {
          "indexed": true,
          "internalType": "address",
          "name": "previousOwner",
          "type": "address"
        },
        {
          "indexed": true,
          "internalType": "address",
          "name": "newOwner",
          "type": "address"
        }
      ],
      "name": "OwnershipTransferred",
      "type": "event"
    },
    {
      "anonymous": false,
      "inputs": [
        {
          "indexed": false,
          "internalType": "address",
          "name": "from",
          "type": "address"
        },
        {
          "indexed": false,
          "internalType": "uint256",
          "name": "amount",
          "type": "uint256"
        }
      ],
      "name": "Stake",
      "type": "event"
    },
    {
      "anonymous": false,
      "inputs": [
        {
          "indexed": false,
          "internalType": "address",
          "name": "from",
          "type": "address"
        },
        {
          "indexed": false,
          "internalType": "uint256",
          "name": "amount",
          "type": "uint256"
        }
      ],
      "name": "Unstake",
      "type": "event"
    },
    {
      "inputs": [],
      "name": "blockReward",
      "outputs": [
        {
          "internalType": "uint256",
          "name": "",
          "type": "uint256"
        }
      ],
      "stateMutability": "view",
      "type": "function"
    },
    {
      "inputs": [],
      "name": "endBlock",
      "outputs": [
        {
          "internalType": "uint256",
          "name": "",
          "type": "uint256"
        }
      ],
      "stateMutability": "view",
      "type": "function"
    },
    {
      "inputs": [],
      "name": "globalEPKBalance",
      "outputs": [
        {
          "internalType": "uint256",
          "name": "",
          "type": "uint256"
        }
      ],
      "stateMutability": "view",
      "type": "function"
    },
    {
      "inputs": [],
      "name": "globalLPBalance",
      "outputs": [
        {
          "internalType": "uint256",
          "name": "",
          "type": "uint256"
        }
      ],
      "stateMutability": "view",
      "type": "function"
    },
    {
      "inputs": [],
      "name": "latestSettleBlock",
      "outputs": [
        {
          "internalType": "uint256",
          "name": "",
          "type": "uint256"
        }
      ],
      "stateMutability": "view",
      "type": "function"
    },
    {
      "inputs": [],
      "name": "latestSettledRate",
      "outputs": [
        {
          "internalType": "uint256",
          "name": "",
          "type": "uint256"
        }
      ],
      "stateMutability": "view",
      "type": "function"
    },
    {
      "inputs": [],
      "name": "owner",
      "outputs": [
        {
          "internalType": "address",
          "name": "",
          "type": "address"
        }
      ],
      "stateMutability": "view",
      "type": "function"
    },
    {
      "inputs": [],
      "name": "renounceOwnership",
      "outputs": [],
      "stateMutability": "nonpayable",
      "type": "function"
    },
    {
      "inputs": [
        {
          "internalType": "address",
          "name": "newOwner",
          "type": "address"
        }
      ],
      "name": "transferOwnership",
      "outputs": [],
      "stateMutability": "nonpayable",
      "type": "function"
    },
    {
      "inputs": [
        {
          "internalType": "uint256",
          "name": "_amount",
          "type": "uint256"
        },
        {
          "internalType": "uint256",
          "name": "_endBlock",
          "type": "uint256"
        }
      ],
      "name": "increaseJackpot",
      "outputs": [],
      "stateMutability": "nonpayable",
      "type": "function"
    },
    {
      "inputs": [
        {
          "internalType": "uint256",
          "name": "_amount",
          "type": "uint256"
        }
      ],
      "name": "stack",
      "outputs": [],
      "stateMutability": "payable",
      "type": "function"
    },
    {
      "inputs": [],
      "name": "unstake",
      "outputs": [],
      "stateMutability": "payable",
      "type": "function"
    },
    {
      "inputs": [],
      "name": "harvest",
      "outputs": [],
      "stateMutability": "payable",
      "type": "function"
    },
    {
      "inputs": [
        {
          "internalType": "address",
          "name": "_account",
          "type": "address"
        }
      ],
      "name": "rewardBalanceOf",
      "outputs": [
        {
          "internalType": "uint256",
          "name": "_balance",
          "type": "uint256"
        }
      ],
      "stateMutability": "view",
      "type": "function"
    },
    {
      "inputs": [
        {
          "internalType": "address",
          "name": "_account",
          "type": "address"
        }
      ],
      "name": "lpStacked",
      "outputs": [
        {
          "internalType": "uint256",
          "name": "_balance",
          "type": "uint256"
        }
      ],
      "stateMutability": "view",
      "type": "function"
    }
  ],
  "bytecode": "0x60806040526000600160006101000a81548173ffffffffffffffffffffffffffffffffffffffff021916908373ffffffffffffffffffffffffffffffffffffffff1602179055506000600260006101000a81548173ffffffffffffffffffffffffffffffffffffffff021916908373ffffffffffffffffffffffffffffffffffffffff1602179055503480156200009557600080fd5b5060405162001d9438038062001d948339818101604052810190620000bb919062000248565b620000db620000cf6200016560201b60201c565b6200016d60201b60201c565b81600260006101000a81548173ffffffffffffffffffffffffffffffffffffffff021916908373ffffffffffffffffffffffffffffffffffffffff16021790555080600160006101000a81548173ffffffffffffffffffffffffffffffffffffffff021916908373ffffffffffffffffffffffffffffffffffffffff1602179055505050620002d7565b600033905090565b60008060009054906101000a900473ffffffffffffffffffffffffffffffffffffffff169050816000806101000a81548173ffffffffffffffffffffffffffffffffffffffff021916908373ffffffffffffffffffffffffffffffffffffffff1602179055508173ffffffffffffffffffffffffffffffffffffffff168173ffffffffffffffffffffffffffffffffffffffff167f8be0079c531659141344cd1fd0a4f28419497f9722a3daafe3b4186f6b6457e060405160405180910390a35050565b6000815190506200024281620002bd565b92915050565b600080604083850312156200025c57600080fd5b60006200026c8582860162000231565b92505060206200027f8582860162000231565b9150509250929050565b600062000296826200029d565b9050919050565b600073ffffffffffffffffffffffffffffffffffffffff82169050919050565b620002c88162000289565b8114620002d457600080fd5b50565b611aad80620002e76000396000f3fe6080604052600436106100e85760003560e01c80634641257d1161008a578063dc9031c411610059578063dc9031c414610280578063e109d52c1461029c578063e964b644146102c7578063f2fde38b14610304576100e8565b80634641257d14610209578063715018a6146102135780638da5cb5b1461022a578063b332b7d714610255576100e8565b80630ac168a1116100c65780630ac168a11461017e5780630c9a0f3b146101a95780631370db86146101d45780632def6620146101ff576100e8565b806307302497146100ed578063083c63231461012a57806308be870014610155575b600080fd5b3480156100f957600080fd5b50610114600480360381019061010f91906111fb565b61032d565b60405161012191906117e6565b60405180910390f35b34801561013657600080fd5b5061013f61039d565b60405161014c91906117e6565b60405180910390f35b34801561016157600080fd5b5061017c60048036038101906101779190611276565b6103a3565b005b34801561018a57600080fd5b50610193610581565b6040516101a091906117e6565b60405180910390f35b3480156101b557600080fd5b506101be610587565b6040516101cb91906117e6565b60405180910390f35b3480156101e057600080fd5b506101e961058d565b6040516101f691906117e6565b60405180910390f35b610207610593565b005b6102116106c2565b005b34801561021f57600080fd5b50610228610758565b005b34801561023657600080fd5b5061023f6107e0565b60405161024c9190611629565b60405180910390f35b34801561026157600080fd5b5061026a610809565b60405161027791906117e6565b60405180910390f35b61029a6004803603810190610295919061124d565b61080f565b005b3480156102a857600080fd5b506102b161098b565b6040516102be91906117e6565b60405180910390f35b3480156102d357600080fd5b506102ee60048036038101906102e991906111fb565b610991565b6040516102fb91906117e6565b60405180910390f35b34801561031057600080fd5b5061032b600480360381019061032691906111fb565b610a73565b005b600080600960008473ffffffffffffffffffffffffffffffffffffffff1673ffffffffffffffffffffffffffffffffffffffff1681526020019081526020016000206040518060400160405290816000820154815260200160018201548152505090508060000151915050919050565b60065481565b6103ab610b6b565b73ffffffffffffffffffffffffffffffffffffffff166103c96107e0565b73ffffffffffffffffffffffffffffffffffffffff161461041f576040517f08c379a000000000000000000000000000000000000000000000000000000000815260040161041690611766565b60405180910390fd5b60008211610462576040517f08c379a000000000000000000000000000000000000000000000000000000000815260040161045990611786565b60405180910390fd5b4381116104a4576040517f08c379a000000000000000000000000000000000000000000000000000000000815260040161049b90611706565b60405180910390fd5b6104d2600260009054906101000a900473ffffffffffffffffffffffffffffffffffffffff16333085610b73565b60004360065411156104f8576104f56004546104f060065443610bfc565b610c12565b90505b6105028184610c28565b90508160068190555061051760035484610c28565b60038190555060006105348261052f60065443610bfc565b610c3e565b905061054260055482610c54565b7f39ca9b0d2c3a2cdb4aae056556245b2809a2a063feabb547bfd12670d4801550338560405161057392919061167b565b60405180910390a150505050565b60045481565b60035481565b60075481565b6000600960003373ffffffffffffffffffffffffffffffffffffffff1673ffffffffffffffffffffffffffffffffffffffff1681526020019081526020016000209050600081600001541161061d576040517f08c379a000000000000000000000000000000000000000000000000000000000815260040161061490611726565b60405180910390fd5b61062681610ca8565b7f85082129d87b2fe11527cb1b3b7a520aeb5aa6913f88a3d8757fe40d1db02fdd33826000015460405161065b92919061167b565b60405180910390a1610694600160009054906101000a900473ffffffffffffffffffffffffffffffffffffffff16338360000154610db3565b60006106a66005548360000154610bfc565b9050600082600001819055506106be81600454610c54565b5050565b6000600960003373ffffffffffffffffffffffffffffffffffffffff1673ffffffffffffffffffffffffffffffffffffffff1681526020019081526020016000209050600081600001541161074c576040517f08c379a000000000000000000000000000000000000000000000000000000000815260040161074390611726565b60405180910390fd5b61075581610ca8565b50565b610760610b6b565b73ffffffffffffffffffffffffffffffffffffffff1661077e6107e0565b73ffffffffffffffffffffffffffffffffffffffff16146107d4576040517f08c379a00000000000000000000000000000000000000000000000000000000081526004016107cb90611766565b60405180910390fd5b6107de6000610e39565b565b60008060009054906101000a900473ffffffffffffffffffffffffffffffffffffffff16905090565b60085481565b60008111610852576040517f08c379a000000000000000000000000000000000000000000000000000000000815260040161084990611786565b60405180910390fd5b4360065411610896576040517f08c379a000000000000000000000000000000000000000000000000000000000815260040161088d906116c6565b60405180910390fd5b6108c4600160009054906101000a900473ffffffffffffffffffffffffffffffffffffffff16333084610b73565b6000600960003373ffffffffffffffffffffffffffffffffffffffff1673ffffffffffffffffffffffffffffffffffffffff168152602001908152602001600020905061091081610ca8565b600061091e60055484610c28565b905061092c81600454610c54565b61093a826000015484610c28565b826000018190555060085482600101819055507febedb8b3c678666e7f36970bc8f57abf6d8fa2e828c0da91ea5b75bf68ed101a338460405161097e92919061167b565b60405180910390a1505050565b60055481565b600080600960008473ffffffffffffffffffffffffffffffffffffffff1673ffffffffffffffffffffffffffffffffffffffff1681526020019081526020016000206040518060400160405290816000820154815260200160018201548152505090506000816000015111610a0a576000915050610a6e565b6000610a306004546005546007546006544310610a2957600654610a2b565b435b610efd565b90506000610a4d610a4360085484610c28565b8460200151610bfc565b9050610a68610a60828560000151610c12565b612710610c3e565b93505050505b919050565b610a7b610b6b565b73ffffffffffffffffffffffffffffffffffffffff16610a996107e0565b73ffffffffffffffffffffffffffffffffffffffff1614610aef576040517f08c379a0000000000000000000000000000000000000000000000000000000008152600401610ae690611766565b60405180910390fd5b600073ffffffffffffffffffffffffffffffffffffffff168173ffffffffffffffffffffffffffffffffffffffff161415610b5f576040517f08c379a0000000000000000000000000000000000000000000000000000000008152600401610b56906116e6565b60405180910390fd5b610b6881610e39565b50565b600033905090565b610bf6846323b872dd60e01b858585604051602401610b9493929190611644565b604051602081830303815290604052907bffffffffffffffffffffffffffffffffffffffffffffffffffffffff19166020820180517bffffffffffffffffffffffffffffffffffffffffffffffffffffffff8381831617835250505050610f4f565b50505050565b60008183610c0a9190611914565b905092915050565b60008183610c2091906118ba565b905092915050565b60008183610c369190611833565b905092915050565b60008183610c4c9190611889565b905092915050565b6000610c7a6004546005546007546006544310610c7357600654610c75565b435b610efd565b9050610c8860085482610c28565b600881905550436007819055508260058190555081600481905550505050565b6000816000015411610cb957610db0565b6000610cdf6004546005546007546006544310610cd857600654610cda565b435b610efd565b90506000610cef60085483610c28565b90506000610d01828560010154610bfc565b90506000811115610dac576000610d27610d1f866000015484610c12565b612710610c3e565b9050610d56600260009054906101000a900473ffffffffffffffffffffffffffffffffffffffff163383610db3565b828560010181905550610d6b60035482610bfc565b6003819055507fc9695243a805adb74c91f28311176c65b417e842d5699893cef56d18bfa48cba3382604051610da292919061167b565b60405180910390a1505b5050505b50565b610e348363a9059cbb60e01b8484604051602401610dd292919061167b565b604051602081830303815290604052907bffffffffffffffffffffffffffffffffffffffffffffffffffffffff19166020820180517bffffffffffffffffffffffffffffffffffffffffffffffffffffffff8381831617835250505050610f4f565b505050565b60008060009054906101000a900473ffffffffffffffffffffffffffffffffffffffff169050816000806101000a81548173ffffffffffffffffffffffffffffffffffffffff021916908373ffffffffffffffffffffffffffffffffffffffff1602179055508173ffffffffffffffffffffffffffffffffffffffff168173ffffffffffffffffffffffffffffffffffffffff167f8be0079c531659141344cd1fd0a4f28419497f9722a3daafe3b4186f6b6457e060405160405180910390a35050565b60008282111580610f0f575060008411155b15610f1d5760009050610f47565b610f44610f2a8385610bfc565b610f3f610f3988612710610c12565b87610c3e565b610c12565b90505b949350505050565b6000610fb1826040518060400160405280602081526020017f5361666545524332303a206c6f772d6c6576656c2063616c6c206661696c65648152508573ffffffffffffffffffffffffffffffffffffffff166110169092919063ffffffff16565b90506000815111156110115780806020019051810190610fd19190611224565b611010576040517f08c379a0000000000000000000000000000000000000000000000000000000008152600401611007906117c6565b60405180910390fd5b5b505050565b6060611025848460008561102e565b90509392505050565b606082471015611073576040517f08c379a000000000000000000000000000000000000000000000000000000000815260040161106a90611746565b60405180910390fd5b61107c85611142565b6110bb576040517f08c379a00000000000000000000000000000000000000000000000000000000081526004016110b2906117a6565b60405180910390fd5b6000808673ffffffffffffffffffffffffffffffffffffffff1685876040516110e49190611612565b60006040518083038185875af1925050503d8060008114611121576040519150601f19603f3d011682016040523d82523d6000602084013e611126565b606091505b5091509150611136828286611155565b92505050949350505050565b600080823b905060008111915050919050565b60608315611165578290506111b5565b6000835111156111785782518084602001fd5b816040517f08c379a00000000000000000000000000000000000000000000000000000000081526004016111ac91906116a4565b60405180910390fd5b9392505050565b6000813590506111cb81611a32565b92915050565b6000815190506111e081611a49565b92915050565b6000813590506111f581611a60565b92915050565b60006020828403121561120d57600080fd5b600061121b848285016111bc565b91505092915050565b60006020828403121561123657600080fd5b6000611244848285016111d1565b91505092915050565b60006020828403121561125f57600080fd5b600061126d848285016111e6565b91505092915050565b6000806040838503121561128957600080fd5b6000611297858286016111e6565b92505060206112a8858286016111e6565b9150509250929050565b6112bb81611948565b82525050565b60006112cc82611801565b6112d68185611817565b93506112e6818560208601611990565b80840191505092915050565b60006112fd8261180c565b6113078185611822565b9350611317818560208601611990565b61132081611a21565b840191505092915050565b6000611338600983611822565b91507f6661726d206f76657200000000000000000000000000000000000000000000006000830152602082019050919050565b6000611378602683611822565b91507f4f776e61626c653a206e6577206f776e657220697320746865207a65726f206160008301527f64647265737300000000000000000000000000000000000000000000000000006020830152604082019050919050565b60006113de603583611822565b91507f5f656e64626c6f636b2073686f756c642062652067726561746572207468616e60008301527f2063757272656e7420626c6f636b206e756d62657200000000000000000000006020830152604082019050919050565b6000611444601183611822565b91507f6c70206f7574206f662062616c616e63650000000000000000000000000000006000830152602082019050919050565b6000611484602683611822565b91507f416464726573733a20696e73756666696369656e742062616c616e636520666f60008301527f722063616c6c00000000000000000000000000000000000000000000000000006020830152604082019050919050565b60006114ea602083611822565b91507f4f776e61626c653a2063616c6c6572206973206e6f7420746865206f776e65726000830152602082019050919050565b600061152a601a83611822565b91507f5f616d6f756e742073686f756c6420626520706f7369746976650000000000006000830152602082019050919050565b600061156a601d83611822565b91507f416464726573733a2063616c6c20746f206e6f6e2d636f6e74726163740000006000830152602082019050919050565b60006115aa602a83611822565b91507f5361666545524332303a204552433230206f7065726174696f6e20646964206e60008301527f6f742073756363656564000000000000000000000000000000000000000000006020830152604082019050919050565b61160c81611986565b82525050565b600061161e82846112c1565b915081905092915050565b600060208201905061163e60008301846112b2565b92915050565b600060608201905061165960008301866112b2565b61166660208301856112b2565b6116736040830184611603565b949350505050565b600060408201905061169060008301856112b2565b61169d6020830184611603565b9392505050565b600060208201905081810360008301526116be81846112f2565b905092915050565b600060208201905081810360008301526116df8161132b565b9050919050565b600060208201905081810360008301526116ff8161136b565b9050919050565b6000602082019050818103600083015261171f816113d1565b9050919050565b6000602082019050818103600083015261173f81611437565b9050919050565b6000602082019050818103600083015261175f81611477565b9050919050565b6000602082019050818103600083015261177f816114dd565b9050919050565b6000602082019050818103600083015261179f8161151d565b9050919050565b600060208201905081810360008301526117bf8161155d565b9050919050565b600060208201905081810360008301526117df8161159d565b9050919050565b60006020820190506117fb6000830184611603565b92915050565b600081519050919050565b600081519050919050565b600081905092915050565b600082825260208201905092915050565b600061183e82611986565b915061184983611986565b9250827fffffffffffffffffffffffffffffffffffffffffffffffffffffffffffffffff0382111561187e5761187d6119c3565b5b828201905092915050565b600061189482611986565b915061189f83611986565b9250826118af576118ae6119f2565b5b828204905092915050565b60006118c582611986565b91506118d083611986565b9250817fffffffffffffffffffffffffffffffffffffffffffffffffffffffffffffffff0483118215151615611909576119086119c3565b5b828202905092915050565b600061191f82611986565b915061192a83611986565b92508282101561193d5761193c6119c3565b5b828203905092915050565b600061195382611966565b9050919050565b60008115159050919050565b600073ffffffffffffffffffffffffffffffffffffffff82169050919050565b6000819050919050565b60005b838110156119ae578082015181840152602081019050611993565b838111156119bd576000848401525b50505050565b7f4e487b7100000000000000000000000000000000000000000000000000000000600052601160045260246000fd5b7f4e487b7100000000000000000000000000000000000000000000000000000000600052601260045260246000fd5b6000601f19601f8301169050919050565b611a3b81611948565b8114611a4657600080fd5b50565b611a528161195a565b8114611a5d57600080fd5b50565b611a6981611986565b8114611a7457600080fd5b5056fea2646970667358221220b622067a50ec62c2bfcf9d1f22f41915c6d07cc4838159710d2b263463b63ef364736f6c63430008000033",
  "immutableReferences": {},
  "source": "// SPDX-License-Identifier: MIT\npragma solidity >=0.7.0 <0.9.0;\n\nimport \"@openzeppelin/contracts/utils/math/SafeMath.sol\";\nimport \"@openzeppelin/contracts/utils/Address.sol\";\nimport \"@openzeppelin/contracts/access/Ownable.sol\";\nimport \"@openzeppelin/contracts/token/ERC20/IERC20.sol\";\nimport \"@openzeppelin/contracts/token/ERC20/utils/SafeERC20.sol\";\n\ncontract EPKFarm is Ownable {\n    IERC20 private EPK_LP_TOKEN = IERC20(address(0));\n    IERC20 private EPK_TOKEN = IERC20(address(0));\n\n    uint256 private constant RACE_DECIMALS = 10000;\n\n    uint256 public globalEPKBalance;\n    uint256 public blockReward;\n    uint256 public globalLPBalance;\n    uint256 public endBlock;\n    uint256 public latestSettleBlock;\n    uint256 public latestSettledRate;\n\n    event Harvest(address to, uint256 amount);\n    event IncreaseJackpot(address from, uint256 amount);\n    event Stake(address from, uint256 amount);\n    event Unstake(address from, uint256 amount);\n\n    struct Account {\n        uint256 lpBalance;\n        uint256 rate;\n    }\n\n    mapping(address => Account) accStacks;\n\n    constructor(address _epkContract, address _epkLPContract) {\n        EPK_TOKEN = IERC20(_epkContract);\n        EPK_LP_TOKEN = IERC20(_epkLPContract);\n    }\n\n    function increaseJackpot(uint256 _amount, uint256 _endBlock)\n        public\n        onlyOwner\n    {\n        require(_amount > 0, \"_amount should be positive\");\n        require(\n            _endBlock > block.number,\n            \"_endblock should be greater than current block number\"\n        );\n        SafeERC20.safeTransferFrom(\n            EPK_TOKEN,\n            msg.sender,\n            address(this),\n            _amount\n        );\n        uint256 _balance = 0;\n        if (endBlock > block.number) {\n            _balance = SafeMath.mul(\n                blockReward,\n                SafeMath.sub(endBlock, block.number)\n            );\n        }\n        _balance = SafeMath.add(_balance, _amount);\n        endBlock = _endBlock;\n        globalEPKBalance = SafeMath.add(globalEPKBalance, _amount);\n        uint256 _newBlockReward = SafeMath.div(\n            _balance,\n            SafeMath.sub(endBlock, block.number)\n        );\n        _refreshGlobalRate(globalLPBalance, _newBlockReward);\n        emit IncreaseJackpot(msg.sender, _amount);\n    }\n\n    function stack(uint256 _amount) public payable {\n        require(_amount > 0, \"_amount should be positive\");\n        require(endBlock > block.number, \"farm over\");\n        SafeERC20.safeTransferFrom(\n            EPK_LP_TOKEN,\n            msg.sender,\n            address(this),\n            _amount\n        );\n        Account storage _acc = accStacks[msg.sender];\n        _harvest(_acc);\n        uint256 _newLPBalance = SafeMath.add(globalLPBalance, _amount);\n        _refreshGlobalRate(_newLPBalance, blockReward);\n        _acc.lpBalance = SafeMath.add(_acc.lpBalance, _amount);\n        _acc.rate = latestSettledRate;\n        emit Stake(msg.sender, _amount);\n    }\n\n    function unstake() public payable {\n        Account storage _acc = accStacks[msg.sender];\n        require(_acc.lpBalance > 0, \"lp out of balance\");\n        _harvest(_acc);\n        emit Unstake(msg.sender, _acc.lpBalance);\n        SafeERC20.safeTransfer(EPK_LP_TOKEN, msg.sender, _acc.lpBalance);\n        uint256 _newLPBalance = SafeMath.sub(globalLPBalance, _acc.lpBalance);\n        _acc.lpBalance = 0;\n        _refreshGlobalRate(_newLPBalance, blockReward);\n    }\n\n    function harvest() public payable {\n        Account storage _acc = accStacks[msg.sender];\n        require(_acc.lpBalance > 0, \"lp out of balance\");\n        _harvest(_acc);\n    }\n\n    function rewardBalanceOf(address _account)\n        public\n        view\n        returns (uint256 _balance)\n    {\n        Account memory _acc = accStacks[_account];\n        if (_acc.lpBalance <= 0) {\n            return 0;\n        }\n        uint256 _runningRace = _caculateRate(\n            blockReward,\n            globalLPBalance,\n            latestSettleBlock,\n            block.number < endBlock ? block.number : endBlock\n        );\n        uint256 _availableRace = SafeMath.sub(\n            SafeMath.add(latestSettledRate, _runningRace),\n            _acc.rate\n        );\n        return\n            SafeMath.div(\n                SafeMath.mul(_availableRace, _acc.lpBalance),\n                RACE_DECIMALS\n            );\n    }\n\n    function lpStacked(address _account)\n        public\n        view\n        returns (uint256 _balance)\n    {\n        Account memory _acc = accStacks[_account];\n        return _acc.lpBalance;\n    }\n\n    function _harvest(Account storage _acc) internal {\n        if (_acc.lpBalance <= 0) {\n            return;\n        }\n        uint256 _runningrate = _caculateRate(\n            blockReward,\n            globalLPBalance,\n            latestSettleBlock,\n            block.number < endBlock ? block.number : endBlock\n        );\n        uint256 _latestRate = SafeMath.add(latestSettledRate, _runningrate);\n        uint256 _rewardRate = SafeMath.sub(_latestRate, _acc.rate);\n        if (_rewardRate > 0) {\n            uint256 _rewardEPK = SafeMath.div(\n                SafeMath.mul(_acc.lpBalance, _rewardRate),\n                RACE_DECIMALS\n            );\n            SafeERC20.safeTransfer(EPK_TOKEN, msg.sender, _rewardEPK);\n            _acc.rate = _latestRate;\n            globalEPKBalance = SafeMath.sub(globalEPKBalance, _rewardEPK);\n            emit Harvest(msg.sender, _rewardEPK);\n        }\n    }\n\n    function _refreshGlobalRate(uint256 _newLPBalance, uint256 _newBlockReward)\n        internal\n    {\n        uint256 _rate = _caculateRate(\n            blockReward,\n            globalLPBalance,\n            latestSettleBlock,\n            block.number < endBlock ? block.number : endBlock\n        );\n        latestSettledRate = SafeMath.add(latestSettledRate, _rate);\n        latestSettleBlock = block.number;\n        globalLPBalance = _newLPBalance;\n        blockReward = _newBlockReward;\n    }\n\n    function _caculateRate(\n        uint256 _blockReward,\n        uint256 _lpBalance,\n        uint256 _start,\n        uint256 _end\n    ) internal pure returns (uint256 _race) {\n        if (_end <= _start || _lpBalance <= 0) {\n            return 0;\n        }\n        _race = SafeMath.mul(\n            SafeMath.sub(_end, _start),\n            SafeMath.div(SafeMath.mul(_blockReward, RACE_DECIMALS), _lpBalance)\n        );\n    }\n}\n",
  "sourcePath": "/Users/rainer/Work/epiK/contracts/epk-farm/contracts/EPKFarm.sol",
  "compiler": {
    "name": "solc",
    "version": "0.8.0+commit.c7dfd78e.Emscripten.clang"
  },
  "schemaVersion": "3.4.3",
  "updatedAt": "2021-10-25T10:12:03.149Z",
  "devdoc": {
    "kind": "dev",
    "methods": {
      "owner()": {
        "details": "Returns the address of the current owner."
      },
      "renounceOwnership()": {
        "details": "Leaves the contract without owner. It will not be possible to call `onlyOwner` functions anymore. Can only be called by the current owner. NOTE: Renouncing ownership will leave the contract without an owner, thereby removing any functionality that is only available to the owner."
      },
      "transferOwnership(address)": {
        "details": "Transfers ownership of the contract to a new account (`newOwner`). Can only be called by the current owner."
      }
    },
    "version": 1
  },
  "userdoc": {
    "kind": "user",
    "methods": {},
    "version": 1
  }
}