{
  "contractName": "EPKFarmV2",
  "abi": [
    {
      "inputs": [],
      "stateMutability": "nonpayable",
      "type": "constructor"
    },
    {
      "anonymous": false,
      "inputs": [
        {
          "indexed": true,
          "internalType": "address",
          "name": "previousOwner",
          "type": "address"
        },
        {
          "indexed": true,
          "internalType": "address",
          "name": "newOwner",
          "type": "address"
        }
      ],
      "name": "OwnershipTransferred",
      "type": "event"
    },
    {
      "inputs": [],
      "name": "farmInfo",
      "outputs": [
        {
          "internalType": "uint256",
          "name": "lpBalance",
          "type": "uint256"
        },
        {
          "internalType": "uint256",
          "name": "totalEPK",
          "type": "uint256"
        },
        {
          "internalType": "uint256",
          "name": "epkBalance",
          "type": "uint256"
        },
        {
          "internalType": "uint256",
          "name": "rewardPerBlock",
          "type": "uint256"
        },
        {
          "internalType": "uint256",
          "name": "startBlock",
          "type": "uint256"
        },
        {
          "internalType": "uint256",
          "name": "endBlock",
          "type": "uint256"
        }
      ],
      "stateMutability": "view",
      "type": "function"
    },
    {
      "inputs": [],
      "name": "owner",
      "outputs": [
        {
          "internalType": "address",
          "name": "",
          "type": "address"
        }
      ],
      "stateMutability": "view",
      "type": "function"
    },
    {
      "inputs": [],
      "name": "renounceOwnership",
      "outputs": [],
      "stateMutability": "nonpayable",
      "type": "function"
    },
    {
      "inputs": [
        {
          "internalType": "address",
          "name": "newOwner",
          "type": "address"
        }
      ],
      "name": "transferOwnership",
      "outputs": [],
      "stateMutability": "nonpayable",
      "type": "function"
    },
    {
      "inputs": [],
      "name": "destroy",
      "outputs": [],
      "stateMutability": "nonpayable",
      "type": "function"
    },
    {
      "inputs": [
        {
          "internalType": "uint256",
          "name": "_amount",
          "type": "uint256"
        },
        {
          "internalType": "uint256",
          "name": "_endBlock",
          "type": "uint256"
        }
      ],
      "name": "appendEPK",
      "outputs": [],
      "stateMutability": "nonpayable",
      "type": "function"
    },
    {
      "inputs": [
        {
          "internalType": "uint256",
          "name": "_amount",
          "type": "uint256"
        }
      ],
      "name": "stack",
      "outputs": [],
      "stateMutability": "payable",
      "type": "function"
    },
    {
      "inputs": [],
      "name": "retrieve",
      "outputs": [],
      "stateMutability": "nonpayable",
      "type": "function"
    },
    {
      "inputs": [],
      "name": "harvest",
      "outputs": [],
      "stateMutability": "nonpayable",
      "type": "function"
    },
    {
      "inputs": [
        {
          "internalType": "address",
          "name": "_addr",
          "type": "address"
        }
      ],
      "name": "rewardBalance",
      "outputs": [
        {
          "internalType": "uint256",
          "name": "",
          "type": "uint256"
        }
      ],
      "stateMutability": "view",
      "type": "function"
    },
    {
      "inputs": [],
      "name": "getFarmInfo",
      "outputs": [
        {
          "components": [
            {
              "internalType": "uint256",
              "name": "lpBalance",
              "type": "uint256"
            },
            {
              "internalType": "uint256",
              "name": "totalEPK",
              "type": "uint256"
            },
            {
              "internalType": "uint256",
              "name": "epkBalance",
              "type": "uint256"
            },
            {
              "internalType": "uint256",
              "name": "rewardPerBlock",
              "type": "uint256"
            },
            {
              "internalType": "uint256",
              "name": "startBlock",
              "type": "uint256"
            },
            {
              "internalType": "uint256",
              "name": "endBlock",
              "type": "uint256"
            }
          ],
          "internalType": "struct EPKFarmV2.FarmInfo",
          "name": "_info",
          "type": "tuple"
        }
      ],
      "stateMutability": "view",
      "type": "function"
    }
  ],
  "bytecode": "0x608060405234801561001057600080fd5b5061002d6100226100a660201b60201c565b6100ae60201b60201c565b6040518060c00160405280600081526020016000815260200160008152602001600081526020016000815260200160008152506001600082015181600001556020820151816001015560408201518160020155606082015181600301556080820151816004015560a08201518160050155905050610172565b600033905090565b60008060009054906101000a900473ffffffffffffffffffffffffffffffffffffffff169050816000806101000a81548173ffffffffffffffffffffffffffffffffffffffff021916908373ffffffffffffffffffffffffffffffffffffffff1602179055508173ffffffffffffffffffffffffffffffffffffffff168173ffffffffffffffffffffffffffffffffffffffff167f8be0079c531659141344cd1fd0a4f28419497f9722a3daafe3b4186f6b6457e060405160405180910390a35050565b611e13806101816000396000f3fe60806040526004361061009c5760003560e01c8063715018a611610064578063715018a614610167578063736bfa2b1461017e57806383197ef0146101a75780638da5cb5b146101be578063dc9031c4146101e9578063f2fde38b146102055761009c565b806309434f28146100a15780631d49d66c146100cc5780632e64cec1146100fc5780634641257d1461011357806367b40cf71461012a575b600080fd5b3480156100ad57600080fd5b506100b661022e565b6040516100c39190611a87565b60405180910390f35b3480156100d857600080fd5b506100e1610284565b6040516100f396959493929190611abd565b60405180910390f35b34801561010857600080fd5b506101116102ae565b005b34801561011f57600080fd5b506101286103cf565b005b34801561013657600080fd5b50610151600480360381019061014c9190611438565b610492565b60405161015e9190611aa2565b60405180910390f35b34801561017357600080fd5b5061017c610581565b005b34801561018a57600080fd5b506101a560048036038101906101a091906114b3565b610609565b005b3480156101b357600080fd5b506101bc6107bc565b005b3480156101ca57600080fd5b506101d3610a3e565b6040516101e091906118ca565b60405180910390f35b61020360048036038101906101fe919061148a565b610a67565b005b34801561021157600080fd5b5061022c60048036038101906102279190611438565b610b62565b005b6102366113c3565b60016040518060c00160405290816000820154815260200160018201548152602001600282015481526020016003820154815260200160048201548152602001600582015481525050905090565b60018060000154908060010154908060020154908060030154908060040154908060050154905086565b6102b6610c5a565b6000600760003373ffffffffffffffffffffffffffffffffffffffff1673ffffffffffffffffffffffffffffffffffffffff16815260200190815260200160002090506000816000015411610340576040517f08c379a000000000000000000000000000000000000000000000000000000000815260040161033790611a47565b60405180910390fd5b610348610c5a565b61036b735e67a806c6341b9a5235c07009acd56d964dba21338360000154610ced565b61037e6001600001548260000154610d73565b600160000181905550600081600001819055506000816001015411156103cc576103c173cfd5ff9c405b04ad553ebaee06839fafdbf8fe5d338360010154610ced565b600081600101819055505b50565b6103d833610d89565b6000600760003373ffffffffffffffffffffffffffffffffffffffff1673ffffffffffffffffffffffffffffffffffffffff16815260200190815260200160002090506000816001015411610462576040517f08c379a000000000000000000000000000000000000000000000000000000000815260040161045990611967565b60405180910390fd5b61048573cfd5ff9c405b04ad553ebaee06839fafdbf8fe5d338360010154610ced565b6000816001018190555050565b600080600760008473ffffffffffffffffffffffffffffffffffffffff1673ffffffffffffffffffffffffffffffffffffffff1681526020019081526020016000206040518060800160405290816000820154815260200160018201548152602001600282015481526020016003820154815250509050600061052c6105216001600301548460000151610e96565b600160000154610eac565b905060008260400151905060016004015481101561054d5760016004015490505b600061056483834361055f9190611c31565b610e96565b90508360200151816105769190611b50565b945050505050919050565b610589610ec2565b73ffffffffffffffffffffffffffffffffffffffff166105a7610a3e565b73ffffffffffffffffffffffffffffffffffffffff16146105fd576040517f08c379a00000000000000000000000000000000000000000000000000000000081526004016105f4906119e7565b60405180910390fd5b6106076000610eca565b565b610611610ec2565b73ffffffffffffffffffffffffffffffffffffffff1661062f610a3e565b73ffffffffffffffffffffffffffffffffffffffff1614610685576040517f08c379a000000000000000000000000000000000000000000000000000000000815260040161067c906119e7565b60405180910390fd5b600082116106c8576040517f08c379a00000000000000000000000000000000000000000000000000000000081526004016106bf906119c7565b60405180910390fd5b600043905080821161070f576040517f08c379a000000000000000000000000000000000000000000000000000000000815260040161070690611a07565b60405180910390fd5b61072f73cfd5ff9c405b04ad553ebaee06839fafdbf8fe5d333086610f8e565b610737610c5a565b60006001600201549050600081101561074f57600090505b838161075b9190611b50565b905080600160020181905550816001600401819055508260016005018190555081836107879190611c31565b816107929190611ba6565b600160030181905550836001800160008282546107af9190611b50565b9250508190555050505050565b6107c4610ec2565b73ffffffffffffffffffffffffffffffffffffffff166107e2610a3e565b73ffffffffffffffffffffffffffffffffffffffff1614610838576040517f08c379a000000000000000000000000000000000000000000000000000000000815260040161082f906119e7565b60405180910390fd5b610840610c5a565b60005b6008805490508110156109bf5760006008828154811061088c577f4e487b7100000000000000000000000000000000000000000000000000000000600052603260045260246000fd5b9060005260206000200160009054906101000a900473ffffffffffffffffffffffffffffffffffffffff1690506000600760008373ffffffffffffffffffffffffffffffffffffffff1673ffffffffffffffffffffffffffffffffffffffff16815260200190815260200160002090506000816000015411156109535761092c735e67a806c6341b9a5235c07009acd56d964dba21838360000154610ced565b61093f6001600001548260000154610d73565b600160000181905550600081600001819055505b6000816001015411156109aa5761098373cfd5ff9c405b04ad553ebaee06839fafdbf8fe5d838360010154610ced565b6109966001600201548260010154610d73565b600160020181905550600081600101819055505b505080806109b790611ce0565b915050610843565b50600060016000015411156109fe576109f2735e67a806c6341b9a5235c07009acd56d964dba2133600160000154610ced565b60006001600001819055505b60006001600201541115610a3c57610a3073cfd5ff9c405b04ad553ebaee06839fafdbf8fe5d33600160020154610ced565b60006001600201819055505b565b60008060009054906101000a900473ffffffffffffffffffffffffffffffffffffffff16905090565b60008111610aaa576040517f08c379a0000000000000000000000000000000000000000000000000000000008152600401610aa1906119c7565b60405180910390fd5b610ab333610d89565b610ad3735e67a806c6341b9a5235c07009acd56d964dba21333084610f8e565b610adb610c5a565b610ae433611017565b6000600760003373ffffffffffffffffffffffffffffffffffffffff1673ffffffffffffffffffffffffffffffffffffffff1681526020019081526020016000209050610b35816000015483611140565b8160000181905550438160030181905550610b5560016000015483611140565b6001600001819055505050565b610b6a610ec2565b73ffffffffffffffffffffffffffffffffffffffff16610b88610a3e565b73ffffffffffffffffffffffffffffffffffffffff1614610bde576040517f08c379a0000000000000000000000000000000000000000000000000000000008152600401610bd5906119e7565b60405180910390fd5b600073ffffffffffffffffffffffffffffffffffffffff168173ffffffffffffffffffffffffffffffffffffffff161415610c4e576040517f08c379a0000000000000000000000000000000000000000000000000000000008152600401610c4590611987565b60405180910390fd5b610c5781610eca565b50565b60005b600880549050811015610cea57610cd760088281548110610ca7577f4e487b7100000000000000000000000000000000000000000000000000000000600052603260045260246000fd5b9060005260206000200160009054906101000a900473ffffffffffffffffffffffffffffffffffffffff16610d89565b8080610ce290611ce0565b915050610c5d565b50565b610d6e8363a9059cbb60e01b8484604051602401610d0c92919061191c565b604051602081830303815290604052907bffffffffffffffffffffffffffffffffffffffffffffffffffffffff19166020820180517bffffffffffffffffffffffffffffffffffffffffffffffffffffffff8381831617835250505050611156565b505050565b60008183610d819190611c31565b905092915050565b6000600760008373ffffffffffffffffffffffffffffffffffffffff1673ffffffffffffffffffffffffffffffffffffffff16815260200190815260200160002090506000816000015411610dde5750610e93565b600081600201549050600160040154811015610dfd5760016004015490505b6000439050600160050154811115610e185760016005015490505b6000610e3b610e306001600301548660000154610e96565b600160000154610eac565b90506000610e54828585610e4f9190611c31565b610e96565b9050610e64856001015482611140565b8560010181905550828560020181905550610e8460016002015482610d73565b60016002018190555050505050505b50565b60008183610ea49190611bd7565b905092915050565b60008183610eba9190611ba6565b905092915050565b600033905090565b60008060009054906101000a900473ffffffffffffffffffffffffffffffffffffffff169050816000806101000a81548173ffffffffffffffffffffffffffffffffffffffff021916908373ffffffffffffffffffffffffffffffffffffffff1602179055508173ffffffffffffffffffffffffffffffffffffffff168173ffffffffffffffffffffffffffffffffffffffff167f8be0079c531659141344cd1fd0a4f28419497f9722a3daafe3b4186f6b6457e060405160405180910390a35050565b611011846323b872dd60e01b858585604051602401610faf939291906118e5565b604051602081830303815290604052907bffffffffffffffffffffffffffffffffffffffffffffffffffffffff19166020820180517bffffffffffffffffffffffffffffffffffffffffffffffffffffffff8381831617835250505050611156565b50505050565b60005b6008805490508110156110d8578173ffffffffffffffffffffffffffffffffffffffff1660088281548110611078577f4e487b7100000000000000000000000000000000000000000000000000000000600052603260045260246000fd5b9060005260206000200160009054906101000a900473ffffffffffffffffffffffffffffffffffffffff1673ffffffffffffffffffffffffffffffffffffffff1614156110c5575061113d565b80806110d090611ce0565b91505061101a565b506008819080600181540180825580915050600190039060005260206000200160009091909190916101000a81548173ffffffffffffffffffffffffffffffffffffffff021916908373ffffffffffffffffffffffffffffffffffffffff1602179055505b50565b6000818361114e9190611b50565b905092915050565b60006111b8826040518060400160405280602081526020017f5361666545524332303a206c6f772d6c6576656c2063616c6c206661696c65648152508573ffffffffffffffffffffffffffffffffffffffff1661121d9092919063ffffffff16565b905060008151111561121857808060200190518101906111d89190611461565b611217576040517f08c379a000000000000000000000000000000000000000000000000000000000815260040161120e90611a67565b60405180910390fd5b5b505050565b606061122c8484600085611235565b90509392505050565b60608247101561127a576040517f08c379a0000000000000000000000000000000000000000000000000000000008152600401611271906119a7565b60405180910390fd5b61128385611349565b6112c2576040517f08c379a00000000000000000000000000000000000000000000000000000000081526004016112b990611a27565b60405180910390fd5b6000808673ffffffffffffffffffffffffffffffffffffffff1685876040516112eb91906118b3565b60006040518083038185875af1925050503d8060008114611328576040519150601f19603f3d011682016040523d82523d6000602084013e61132d565b606091505b509150915061133d82828661135c565b92505050949350505050565b600080823b905060008111915050919050565b6060831561136c578290506113bc565b60008351111561137f5782518084602001fd5b816040517f08c379a00000000000000000000000000000000000000000000000000000000081526004016113b39190611945565b60405180910390fd5b9392505050565b6040518060c001604052806000815260200160008152602001600081526020016000815260200160008152602001600081525090565b60008135905061140881611d98565b92915050565b60008151905061141d81611daf565b92915050565b60008135905061143281611dc6565b92915050565b60006020828403121561144a57600080fd5b6000611458848285016113f9565b91505092915050565b60006020828403121561147357600080fd5b60006114818482850161140e565b91505092915050565b60006020828403121561149c57600080fd5b60006114aa84828501611423565b91505092915050565b600080604083850312156114c657600080fd5b60006114d485828601611423565b92505060206114e585828601611423565b9150509250929050565b6114f881611c65565b82525050565b600061150982611b1e565b6115138185611b34565b9350611523818560208601611cad565b80840191505092915050565b600061153a82611b29565b6115448185611b3f565b9350611554818560208601611cad565b61155d81611d87565b840191505092915050565b6000611575600e83611b3f565b91507f6f7574206f662062616c616e63650000000000000000000000000000000000006000830152602082019050919050565b60006115b5602683611b3f565b91507f4f776e61626c653a206e6577206f776e657220697320746865207a65726f206160008301527f64647265737300000000000000000000000000000000000000000000000000006020830152604082019050919050565b600061161b602683611b3f565b91507f416464726573733a20696e73756666696369656e742062616c616e636520666f60008301527f722063616c6c00000000000000000000000000000000000000000000000000006020830152604082019050919050565b6000611681600c83611b3f565b91507f616d6f756e74206572726f7200000000000000000000000000000000000000006000830152602082019050919050565b60006116c1602083611b3f565b91507f4f776e61626c653a2063616c6c6572206973206e6f7420746865206f776e65726000830152602082019050919050565b6000611701601f83611b3f565b91507f7374617274206f7220656e6420626c6f636b206e756d626572206572726f72006000830152602082019050919050565b6000611741601d83611b3f565b91507f416464726573733a2063616c6c20746f206e6f6e2d636f6e74726163740000006000830152602082019050919050565b6000611781600a83611b3f565b91507f6e6f206c70746f6b656e000000000000000000000000000000000000000000006000830152602082019050919050565b60006117c1602a83611b3f565b91507f5361666545524332303a204552433230206f7065726174696f6e20646964206e60008301527f6f742073756363656564000000000000000000000000000000000000000000006020830152604082019050919050565b60c0820160008201516118306000850182611895565b5060208201516118436020850182611895565b5060408201516118566040850182611895565b5060608201516118696060850182611895565b50608082015161187c6080850182611895565b5060a082015161188f60a0850182611895565b50505050565b61189e81611ca3565b82525050565b6118ad81611ca3565b82525050565b60006118bf82846114fe565b915081905092915050565b60006020820190506118df60008301846114ef565b92915050565b60006060820190506118fa60008301866114ef565b61190760208301856114ef565b61191460408301846118a4565b949350505050565b600060408201905061193160008301856114ef565b61193e60208301846118a4565b9392505050565b6000602082019050818103600083015261195f818461152f565b905092915050565b6000602082019050818103600083015261198081611568565b9050919050565b600060208201905081810360008301526119a0816115a8565b9050919050565b600060208201905081810360008301526119c08161160e565b9050919050565b600060208201905081810360008301526119e081611674565b9050919050565b60006020820190508181036000830152611a00816116b4565b9050919050565b60006020820190508181036000830152611a20816116f4565b9050919050565b60006020820190508181036000830152611a4081611734565b9050919050565b60006020820190508181036000830152611a6081611774565b9050919050565b60006020820190508181036000830152611a80816117b4565b9050919050565b600060c082019050611a9c600083018461181a565b92915050565b6000602082019050611ab760008301846118a4565b92915050565b600060c082019050611ad260008301896118a4565b611adf60208301886118a4565b611aec60408301876118a4565b611af960608301866118a4565b611b0660808301856118a4565b611b1360a08301846118a4565b979650505050505050565b600081519050919050565b600081519050919050565b600081905092915050565b600082825260208201905092915050565b6000611b5b82611ca3565b9150611b6683611ca3565b9250827fffffffffffffffffffffffffffffffffffffffffffffffffffffffffffffffff03821115611b9b57611b9a611d29565b5b828201905092915050565b6000611bb182611ca3565b9150611bbc83611ca3565b925082611bcc57611bcb611d58565b5b828204905092915050565b6000611be282611ca3565b9150611bed83611ca3565b9250817fffffffffffffffffffffffffffffffffffffffffffffffffffffffffffffffff0483118215151615611c2657611c25611d29565b5b828202905092915050565b6000611c3c82611ca3565b9150611c4783611ca3565b925082821015611c5a57611c59611d29565b5b828203905092915050565b6000611c7082611c83565b9050919050565b60008115159050919050565b600073ffffffffffffffffffffffffffffffffffffffff82169050919050565b6000819050919050565b60005b83811015611ccb578082015181840152602081019050611cb0565b83811115611cda576000848401525b50505050565b6000611ceb82611ca3565b91507fffffffffffffffffffffffffffffffffffffffffffffffffffffffffffffffff821415611d1e57611d1d611d29565b5b600182019050919050565b7f4e487b7100000000000000000000000000000000000000000000000000000000600052601160045260246000fd5b7f4e487b7100000000000000000000000000000000000000000000000000000000600052601260045260246000fd5b6000601f19601f8301169050919050565b611da181611c65565b8114611dac57600080fd5b50565b611db881611c77565b8114611dc357600080fd5b50565b611dcf81611ca3565b8114611dda57600080fd5b5056fea26469706673582212204dfad7d36d636caa29002f59d3ff56f04d5944eb870bbe97e1ab77b7def04c1864736f6c63430008000033",
  "immutableReferences": {},
  "source": "// SPDX-License-Identifier: MIT\npragma solidity >=0.7.0 <0.9.0;\n\nimport \"@openzeppelin/contracts/utils/math/SafeMath.sol\";\nimport \"@openzeppelin/contracts/utils/Address.sol\";\nimport \"@openzeppelin/contracts/access/Ownable.sol\";\nimport \"@openzeppelin/contracts/token/ERC20/IERC20.sol\";\nimport \"@openzeppelin/contracts/token/ERC20/utils/SafeERC20.sol\";\n\n/*\nEPK Farm\n*/\ncontract EPKFarmV2 is Ownable {\n    IERC20 private constant EPK_LP_TOKEN =\n        IERC20(address(0x5E67A806c6341b9A5235C07009ACD56D964dBA21));\n    IERC20 private constant EPK_TOKEN =\n        IERC20(address(0xCFd5FF9C405b04aD553ebaee06839fafDbF8FE5D));\n    struct FarmInfo {\n        uint256 lpBalance;\n        uint256 totalEPK;\n        uint256 epkBalance;\n        uint256 rewardPerBlock;\n        uint256 startBlock;\n        uint256 endBlock;\n    }\n\n    struct UserStack {\n        uint256 lpBalance;\n        uint256 withdrawable;\n        uint256 lastRewardBlock;\n        uint256 stackBlock;\n    }\n\n    FarmInfo public farmInfo;\n    mapping(address => UserStack) private userStacks;\n    address[] private userList;\n\n    constructor() {\n        farmInfo = FarmInfo({\n            lpBalance: 0,\n            totalEPK: 0,\n            epkBalance: 0,\n            rewardPerBlock: 0,\n            startBlock: 0,\n            endBlock: 0\n        });\n    }\n\n    /*\n     * harvest all user's reward\n     * return EPK balance to owner\n     * destroy contract\n     */\n    function destroy() public onlyOwner {\n        _harvestAll();\n        for (uint256 i = 0; i < userList.length; i++) {\n            address _user = userList[i];\n            UserStack storage _stack = userStacks[_user];\n            if (_stack.lpBalance > 0) {\n                SafeERC20.safeTransfer(EPK_LP_TOKEN, _user, _stack.lpBalance);\n                farmInfo.lpBalance = SafeMath.sub(\n                    farmInfo.lpBalance,\n                    _stack.lpBalance\n                );\n                _stack.lpBalance = 0;\n            }\n            if (_stack.withdrawable > 0) {\n                SafeERC20.safeTransfer(EPK_TOKEN, _user, _stack.withdrawable);\n                farmInfo.epkBalance = SafeMath.sub(\n                    farmInfo.epkBalance,\n                    _stack.withdrawable\n                );\n                _stack.withdrawable = 0;\n            }\n        }\n        if (farmInfo.lpBalance > 0) {\n            SafeERC20.safeTransfer(\n                EPK_LP_TOKEN,\n                msg.sender,\n                farmInfo.lpBalance\n            );\n            farmInfo.lpBalance = 0;\n        }\n        if (farmInfo.epkBalance > 0) {\n            SafeERC20.safeTransfer(EPK_TOKEN, msg.sender, farmInfo.epkBalance);\n            farmInfo.epkBalance = 0;\n        }\n    }\n\n    /*\n     * Append EPK to liquidity Farm Pool\n     * _amount:        EPK amount\n     * _endBlock:      block number end calculating reward\n     */\n    function appendEPK(uint256 _amount, uint256 _endBlock) public onlyOwner {\n        require(_amount > 0, \"amount error\");\n        uint256 _startBlock = block.number;\n        if (_endBlock <= _startBlock) {\n            revert(\"start or end block number error\");\n        }\n        SafeERC20.safeTransferFrom(\n            EPK_TOKEN,\n            msg.sender,\n            address(this),\n            _amount\n        );\n        _harvestAll();\n        uint256 balance = farmInfo.epkBalance;\n        if (balance < 0) {\n            balance = 0;\n        }\n        balance += _amount;\n        farmInfo.epkBalance = balance;\n        farmInfo.startBlock = _startBlock;\n        farmInfo.endBlock = _endBlock;\n        farmInfo.rewardPerBlock = balance / (_endBlock - _startBlock);\n        farmInfo.totalEPK += _amount;\n    }\n\n    /*\n     * stack EPK-USDT LPToken into contract for farming\n     * _amount:        EPK LPToken amount\n     */\n    function stack(uint256 _amount) public payable {\n        require(_amount > 0, \"amount error\");\n        _harvestReward(msg.sender);\n        SafeERC20.safeTransferFrom(\n            EPK_LP_TOKEN,\n            msg.sender,\n            address(this),\n            _amount\n        );\n        _harvestAll();\n        _pushUserIndex(msg.sender);\n        UserStack storage _stack = userStacks[msg.sender];\n        _stack.lpBalance = SafeMath.add(_stack.lpBalance, _amount);\n        _stack.stackBlock = block.number;\n        farmInfo.lpBalance = SafeMath.add(farmInfo.lpBalance, _amount);\n    }\n\n    /*\n     * retrieve EPK LPToken ,harvest EPK reward immediately\n     */\n    function retrieve() public {\n        _harvestAll();\n        UserStack storage _stack = userStacks[msg.sender];\n        require(_stack.lpBalance > 0, \"no lptoken\");\n        _harvestAll();\n        SafeERC20.safeTransfer(EPK_LP_TOKEN, msg.sender, _stack.lpBalance);\n        farmInfo.lpBalance = SafeMath.sub(farmInfo.lpBalance, _stack.lpBalance);\n        _stack.lpBalance = 0;\n        if (_stack.withdrawable > 0) {\n            SafeERC20.safeTransfer(EPK_TOKEN, msg.sender, _stack.withdrawable);\n            _stack.withdrawable = 0;\n        }\n    }\n\n    /*\n     * Harvest EPK available reward\n     */\n    function harvest() public {\n        _harvestReward(msg.sender);\n        UserStack storage _stack = userStacks[msg.sender];\n        require(_stack.withdrawable > 0, \"out of balance\");\n        SafeERC20.safeTransfer(EPK_TOKEN, msg.sender, _stack.withdrawable);\n        _stack.withdrawable = 0;\n    }\n\n    /*\n     * Get available reward balance\n     * _addr:        query address\n     * returns \"available balance\"\n     */\n    function rewardBalance(address _addr) public view returns (uint256) {\n        UserStack memory _stack = userStacks[_addr];\n        uint256 _rewardPreBlock = SafeMath.div(\n            SafeMath.mul(farmInfo.rewardPerBlock, _stack.lpBalance),\n            farmInfo.lpBalance\n        );\n        uint256 _start = _stack.lastRewardBlock;\n        if (_start < farmInfo.startBlock) {\n            _start = farmInfo.startBlock;\n        }\n        uint256 _reward = SafeMath.mul(\n            _rewardPreBlock,\n            (block.number - _start)\n        );\n        return (_reward + _stack.withdrawable);\n    }\n\n    /*\n     * Get EPK Farm infomations\n     * returns \"farm infomations\"\n     */\n    function getFarmInfo() public view returns (FarmInfo memory _info) {\n        return farmInfo;\n    }\n\n    function _harvestReward(address _user) internal {\n        UserStack storage _stack = userStacks[_user];\n        if (_stack.lpBalance <= 0) {\n            return;\n        }\n        uint256 _start = _stack.lastRewardBlock;\n        if (_start < farmInfo.startBlock) {\n            _start = farmInfo.startBlock;\n        }\n        uint256 _end = block.number;\n        if (_end > farmInfo.endBlock) {\n            _end = farmInfo.endBlock;\n        }\n        uint256 _rewardPreBlock = SafeMath.div(\n            SafeMath.mul(farmInfo.rewardPerBlock, _stack.lpBalance),\n            farmInfo.lpBalance\n        );\n        uint256 _reward = SafeMath.mul(_rewardPreBlock, (_end - _start));\n        _stack.withdrawable = SafeMath.add(_stack.withdrawable, _reward);\n        _stack.lastRewardBlock = _end;\n        farmInfo.epkBalance = SafeMath.sub(farmInfo.epkBalance, _reward);\n    }\n\n    function _harvestAll() internal {\n        for (uint256 i = 0; i < userList.length; i++) {\n            _harvestReward(userList[i]);\n        }\n    }\n\n    function _pushUserIndex(address _addr) internal {\n        for (uint256 i = 0; i < userList.length; i++) {\n            if (userList[i] == _addr) {\n                return;\n            }\n        }\n        userList.push(_addr);\n    }\n}\n",
  "sourcePath": "/Users/rainer/Work/epiK/contracts/epk-farm/contracts/EPKFarm_v2.sol",
  "compiler": {
    "name": "solc",
    "version": "0.8.0+commit.c7dfd78e.Emscripten.clang"
  },
  "schemaVersion": "3.4.3",
  "updatedAt": "2021-10-22T04:21:49.506Z",
  "devdoc": {
    "kind": "dev",
    "methods": {
      "owner()": {
        "details": "Returns the address of the current owner."
      },
      "renounceOwnership()": {
        "details": "Leaves the contract without owner. It will not be possible to call `onlyOwner` functions anymore. Can only be called by the current owner. NOTE: Renouncing ownership will leave the contract without an owner, thereby removing any functionality that is only available to the owner."
      },
      "transferOwnership(address)": {
        "details": "Transfers ownership of the contract to a new account (`newOwner`). Can only be called by the current owner."
      }
    },
    "version": 1
  },
  "userdoc": {
    "kind": "user",
    "methods": {},
    "version": 1
  }
}